S016000035783720646F74206D61747269782E737265630E
S11300000C942A000C9434000C9434000C943400A6
S11300100C9434000C9434000C9434000C9434008C
S11300200C9434000C9434000C9434000C9434007C
S11300300C9434000C9434000C9434000C9434006C
S11300400C9434000C9434000C9434000C9434005C
S11300500C94340011241FBECFE5D8E0DEBFCDBF21
S11300600E9436000C947D000C9400008FEF87BB37
S113007081BBAEEFF4E0EDEF7AE06BEF81E157EF97
S11300804FE13FEE2FED9FEBA8BBF2BBCFE9DFE0E2
S11300902197F1F700C00000E8BB72BBCFE9DFE0B5
S11300A02197F1F700C0000068BB82BBCFE9DFE015
S11300B02197F1F700C0000058BB42BBCFE9DFE055
S11300C02197F1F700C0000038BB82BBCFE9DFE025
S11300D02197F1F700C0000028BB82BBCFE9DFE025
S11300E02197F1F700C0000098BB82BBCFE9DFE0A5
S11100F02197F1F700C00000C7CFF894FFCFAE
S9030000FC
